S02100004D6F646275735F6B6F6D6D756E696B6174696F6E5F646167332E73726563F6
S11300000C948A000C94B2000C94B2000C949614D4
S11300100C9496140C9496140C94B2000C94B200A4
S11300200C94B2000C94B2000C94B2000C94B20084
S11300300C94B2000C94B2000C94B2000C94B20074
S11300400C942F120C94B2000C9462110C94941121
S11300500C94B2000C94B2000C94B2000C94B20054
S11300600C94B2000C94B2000C94B2000C94B20044
S11300700C94B2000C94B2000C94B2000C94B20034
S11300800C94B2000C94B2000C94B2000C94B20024
S11300900C94B2000C94B2000C94B2000C94B20014
S11300A00C94B2000C94B2000C94B2000C94B20004
S11300B00C94B200000000080002010000030407D1
S11300C0000000000000000001020408102040802D
S11300D0010204081020010204081020040404048E
S11300E004040404020202020202030303030303DE
S11300F00000000023002600290000000000250065
S113010028002B0000000000240027002A00CB0D4B
S1130110C411D80D11241FBECFEFD8E0DEBFCDBF70
S113012011E0A0E0B1E0EEE8FFE202C005900D921C
S1130130AE32B107D9F725E0AEE2B1E001C01D92BD
S1130140A23DB207E1F710E0C9E8D0E004C021976E
S1130150FE010E948C16C738D107C9F70E94F2111C
S11301600C94BA170C940000CF93DF9300D000D006
S113017000D0CDB7DEB79A8389834B835C836D83CC
S11301807E838B819C81AD81BE81E981FA8126E0E9
S1130190AC01BD01CF010E94FA10000026960FB6F3
S11301A0F894DEBF0FBECDBFDF91CF910895CF93FA
S11301B0DF9300D000D0CDB7DEB79A8389837C83E8
S11301C06B8389819A81FC0180819181FC0120816A
S11301D031814B8189819A81642FF90109950F90AE
S11301E00F900F900F90DF91CF910895CF93DF93ED
S11301F000D0CDB7DEB79A83898381E00F900F904A
S1130200DF91CF910895CF93DF93CDB7DEB740E070
S113021051E060E070E081E391E00E94B317109236
S113022031020000DF91CF910895CF93DF93CDB7D2
S1130230DEB740E052E060E070E082E392E00E94CA
S1130240B317109232040000DF91CF910895CF9339
S1130250DF93CDB7DEB72D970FB6F894DEBF0FBE90
S1130260CDBF9A8789876B875D874C8784EE94E03E
S11302700E94D81061E087E00E944A1389858D832B
S113028089859A85892F99278E8382E090E09093BF
S11302900901809308018B85813391F08B8582332A
S11302A079F08B85882361F08B85843049F08B85C8
S11302B08D3331F08B85813419F08B858533D1F4FE
S11302C081E08093300183E090E090930901809372
S11302D008018C859D858F3F910509F020F48C855C
S11302E089831A8207C08C8589838C859D85892F93
S11302F099278A838B85813231F481E090E0909351
S11303000901809308011C821B822B813C818D8111
S1130310882F90E0A901481B590BCA0101979C83BF
S11303208B832B813C818E81882F90E0A901481B0F
S1130330590BCA0101979C838B838B819C812091EB
S1130340080130910901821B930B01979C838B83D5
S11303508B858132A9F12B813C818B85882F90E09C
S1130360A901481B590BCA0101979C838B83809177
S113037030018823C9F02B813C818981882F90E04A
S1130380A901481B590BCA0101979C838B832B81BC
S11303903C818A81882F90E0A901481B590BCA012E
S11303A001979C838B8318C02B813C818C859D8510
S11303B0A901481B590BCA0101979C838B830CC06C
S11303C02B813C818B85882F90E0A901481B590B18
S11303D0CA0101979C838B838B819C81907899239C
S11303E01CF401979F6F01968F838B819C81892FC9
S11303F0990F990B888762E085EC94E00E94D613EC
S113040062E370E080E090E00E94AA1262E085EC72
S113041094E00E94D6136D8185EC94E00E94D6137B
S11304206E8185EC94E00E94D6138B85813221F194
S11304308091080190910901682F85EC94E00E9455
S1130440D6136B8585EC94E00E94D613809130011D
S1130450882359F0698185EC94E00E94D6136A815F
S113046085EC94E00E94D61315C08C85682F85EC2A
S113047094E00E94D6130EC0809108019091090166
S1130480682F85EC94E00E94D6136B8585EC94E08C
S11304900E94D6136F8185EC94E00E94D613688580
S11304A085EC94E00E94D61385EC94E00E94261417
S11304B060E087E00E944A130E94150100002D9617
S11304C00FB6F894DEBF0FBECDBFDF91CF91089574
S11304D0CF93DF9300D000D000D0CDB7DEB79E839A
S11304E08D838D819E81BC0181E391E00E9417037D
S11304F09A8389838D819E818F5C9E4FFC018081CC
S1130500882F90E0382F22278D819E8101968F5C61
S11305109E4FFC018081882F90E0820F931F9C8363
S11305208B8329813A818B819C812817390711F4A7
S113053081E001C080E026960FB6F894DEBF0FBEBE
S1130540CDBFDF91CF910895CF93DF93CDB7DEB7C1
S11305502C970FB6F894DEBF0FBECDBF9C878B8758
S11305608B859C85880F991F8E5C9D4FFC01808133
S11305709181382F22278B859C850196880F991F9E
S11305808E5C9D4FFC0180819181820F931F9E831D
S11305908D831A82198218861F8281E090E09C83E1
S11305A08B838B819C8181359105B4F489819A81F7
S11305B02B813C81220F331F2E5C3D4FF90120819A
S11305C03181821B930B01979A8389838B819C8150
S11305D001969C838B83E5CF8981898789819A8160
S11305E0892F990F990B8A878985882F90E0982FF6
S11305F0882798878F838A85882F90E02F81388574
S1130600820F931F98878F832D813E818F819885D8
S11306102817390711F481E001C080E02C960FB649
S1130620F894DEBF0FBECDBFDF91CF910895CF9375
S1130630DF93CDB7DEB72C970FB6F894DEBF0FBEAD
S1130640CDBF9A8789877C876B878FEF9FEF9A83CB
S113065089831C821B822B813C818B859C85281776
S113066039070CF03FC08B819C8129853A85820F24
S1130670931FFC018081882F90E029813A81822791
S113068093279A83898388E090E09E838D838D816C
S11306909E81892B09F189819A8181709927892BFF
S11306A079F089819A81969587959A83898389813E
S11306B09A81F1E08F27F0EA9F279A83898306C005
S11306C089819A81969587959A8389838D819E8164
S11306D001979E838D83DBCF8B819C8101969C83C4
S11306E08B83B9CF89818F8389819A81892F9927B7
S11306F088878F81882F90E0982F88279A83898311
S11307008885882F90E029813A81820F931F9A83EC
S1130710898389819A812C960FB6F894DEBF0FBE27
S1130720CDBFDF91CF910895CF93DF93CDB7DEB7DF
S113073064970FB6F894DEBF0FBECDBF8A8B7C8B57
S11307406B8B85EC94E00E94261461E083E00E94A8
S1130750861361E082E00E9486138A89843021F046
S11307608A89833009F058C18B899C899A8389834B
S113077085E090E09C838B838A89882F90E09D8715
S11307808C8782E08D8380912E0190912F010297B6
S113079084F080912E0190912F01982F8D81899F53
S11307A0802D11248D838D81882F90E005969C8364
S11307B08B8381E090E00E9401122B81FC01208355
S11307C09F878E878091060190910701282F8E853F
S11307D09F85FC0120838E859F8501962C85FC01D5
S11307E020838E859F8502962D81FC0120838E8532
S11307F09F8503962B893C89220F331F2D5C3B4F29
S1130800F90120813181232F330F330BFC01208325
S11308108E859F8504962B893C89220F331F2D5C7E
S11308203B4FF90120813181FC0120838B899C8914
S113083001969C8B8B8B80912E0190912F010297B6
S11308400CF447C085E090E09F838E838D81882FD0
S113085090E09C012B5F3F4F8D818695882F90E01F
S11308600196281B390B8E819F81821793078CF583
S11308708E819F812E853F85820F931F2B893C8912
S1130880220F331F2D5C3B4FF90120813181232F2F
S1130890330F330BFC0120838E819F8101962E85BB
S11308A03F85280F391F8B899C89AC014F5F5F4FAF
S11308B05C8B4B8B880F991F8D5C9B4FFC01808157
S11308C09181F90180838E819F8101969F838E831C
S11308D0BDCF2B813C818E859F85B9010E94170372
S11308E0998B888B8091060190910701BC0184EE5D
S11308F094E00E94D7008C859D85BC0184EE94E031
S11309000E94D7006D8184EE94E00E948B1089814F
S11309109A81880F991F8D5C9B4FFC018081918186
S1130920892F990F990BBC0184EE94E00E94D700A3
S113093089819A81880F991F8D5C9B4FFC0180816E
S11309409181BC0184EE94E00E94D70089819A8150
S113095001969A83898380912E0190912F010297A9
S11309600CF440C085E090E0998788878D81882FBA
S113097090E09C012B5F3F4F8D818695882F90E0FE
S11309800196281B390B888599858217930754F59E
S113099089819A81880F991F8D5C9B4FFC0180810E
S11309A09181892F990F990BBC0184EE94E00E94E8
S11309B0D70089819A819C012F5F3F4F3A83298315
S11309C0880F991F8D5C9B4FFC0180819181BC0134
S11309D084EE94E00E94D7008885998501969987D2
S11309E08887C4CF88899989892F990F990BBC016D
S11309F084EE94E00E94D70088899989BC0184EE32
S1130A0094E00E94D7008E859F85892B09F18E85FD
S1130A109F850E9403121CC08A898630D1F48B8979
S1130A209C899B878A878A859B85089794F48A8505
S1130A309B858F5C9E4FFC018081682F84EE94E03F
S1130A400E948B108A859B8501969B878A87EBCFB2
S1130A50000084EE94E00E94D81060E083E00E94DD
S1130A60861360E082E00E9486130E9403010E94C4
S1130A701501000064960FB6F894DEBF0FBECDBF1B
S1130A80DF91CF910895CF93DF93CDB7DEB7289749
S1130A900FB6F894DEBF0FBECDBF8F83688761E0C9
S1130AA083E00E94861361E082E00E94861383E063
S1130AB090E09A83898381E090E00E940112298169
S1130AC0FC0120839C838B83809106019091070114
S1130AD0282F8B819C81FC0120838B819C81019632
S1130AE02F81FC0120838B819C8102962885FC0147
S1130AF0208329813A818B819C81B9010E9417034B
S1130B009E838D838091060190910701BC0184EE40
S1130B1094E00E94D7006F8184EE94E00E948B10D1
S1130B20688584EE94E00E948B108D819E81892FCC
S1130B30990F990BBC0184EE94E00E94D7008D813B
S1130B409E81BC0184EE94E00E94D70084EE94E080
S1130B500E94D81060E083E00E94861360E082E087
S1130B600E9486130E940301000028960FB6F89491
S1130B70DEBF0FBECDBFDF91CF910895CF93DF933A
S1130B80CDB7DEB741E050E061E280E390E80E9437
S1130B9027010000DF91CF910895CF93DF93CDB764
S1130BA0DEB760E087E00E944A1361E083E10E94BF
S1130BB04A1360E083E10E94861361E082E00E94B0
S1130BC04A1361E083E00E944A1360E082E00E94DD
S1130BD0861360E083E00E94861340E855E260E0FB
S1130BE070E084EE94E00E94B40084EE94E00E94ED
S1130BF0F600982F81E08927882309F0F6CF40E892
S1130C0055E260E070E085EC94E00E9494150000E9
S1130C10DF91CF910895CF92DF92EF92FF920F93DD
S1130C201F93CF93DF93CDB7DEB766970FB6F894D3
S1130C30DEBF0FBECDBF0E947912DC01CB018093D1
S1130C40770490937804A0937904B0937A04209164
S1130C507704309178044091790450917A0480911A
S1130C607B0490917C04A0917D04B0917E04790171
S1130C708A01E81AF90A0A0B1B0BD801C701883E3E
S1130C809340A105B10590F00E94BE0580917704C0
S1130C9090917804A0917904B0917A0480937B04B4
S1130CA090937C04A0937D04B0937E0484EE94E03E
S1130CB00E941E1021E0892B09F420E0222309F46C
S1130CC0E4C38091310291E0980F90933102082F90
S1130CD010E084EE94E00E943810282FC8018F5C45
S1130CE09E4FFC01208380913101882321F0809163
S1130CF03301882311F00E94030180913101282FD0
S1130D0030E080910601909107012817390741F4DA
S1130D1086E090E00E946802882311F081E001C01F
S1130D2080E0882309F4B1C380913201813009F451
S1130D30ACC380913201823009F4A7C3809132019F
S1130D408330C1F480913601813079F4809134018B
S1130D50882F90E09A83898389819A81BC0183E0FA
S1130D600E9494030E94030190C363E083E80E94FD
S1130D7043058BC380913201843061F58091360143
S1130D808230A0F080913601882F90E090932F015B
S1130D9080932E0180913401882F90E09C838B8373
S1130DA08B819C81BC0184E00E9494038091360174
S1130DB0813009F06AC380913401882F90E09E83CA
S1130DC08D838D819E81BC0184E00E9494030E94E6
S1130DD003015BC380913201853009F456C38091CD
S1130DE03201863009F043C380913401833099F491
S1130DF080913501882F90E0382F22278091360189
S1130E00882F90E0820F931FAC0161E380E390E8A8
S1130E100E9427013AC380913401843099F480916F
S1130E203501882F90E0382F222780913601882FB2
S1130E3090E0820F931FAC0162E380E390E80E948C
S1130E40270123C3809134018530E1F48091360178
S1130E50823098F480913501882F90E0382F222732
S1130E6080913601882F90E0820F931FAC016BE0D4
S1130E7080E390E80E94270108C363E086E80E94AB
S1130E80430503C3809134018630E1F48091360137
S1130E90853698F480913501882F90E0382F2227E9
S1130EA080913601882F90E0820F931FAC0160E09F
S1130EB080E390E80E942701E8C263E086E80E948C
S1130EC04305E3C2809134018730E1F48091360117
S1130ED0853698F480913501882F90E0382F2227A9
S1130EE080913601882F90E0820F931FAC0161E05E
S1130EF080E390E80E942701C8C263E086E80E946C
S1130F004305C3C2809134018830E1F480913601F5
S1130F10893C98F480913501882F90E0382F22275E
S1130F2080913601882F90E0820F931FAC0165E019
S1130F3080E390E80E942701A8C263E086E80E944B
S1130F404305A3C2809134018930E1F480913601D4
S1130F50823098F480913501882F90E0382F222731
S1130F6080913601882F90E0820F931FAC016AE0D4
S1130F7080E390E80E94270188C263E086E80E942B
S1130F80430583C2809134018A30E1F480913601B3
S1130F90823098F480913501882F90E0382F2227F1
S1130FA080913601882F90E0820F931FAC0166E098
S1130FB080E390E80E94270168C263E086E80E940B
S1130FC0430563C2809134018B30E1F48091360192
S1130FD0853698F480913501882F90E0382F2227A8
S1130FE080913601882F90E0820F931FAC0162E05C
S1130FF080E390E80E94270148C263E086E80E94EB
S1131000430543C2809134018C3039F58091350118
S1131010882F90E0382F222780913601882F90E086
S1131020820F931F893592409CF480913501882F5B
S113103090E0382F222780913601882F90E0820F8C
S1131040931FAC0164E080E390E80E9427011DC275
S113105063E086E80E94430518C2809134018D3014
S113106099F480913501882F90E0382F22278091C0
S11310703601882F90E0820F931FAC016DE380E36B
S113108090E80E94270101C2809134018E3099F4C6
S113109080913501882F90E0382F222780913601E6
S11310A0882F90E0820F931FAC0161E480E390E805
S11310B00E942701EAC180913401813199F4809121
S11310C03501882F90E0382F222780913601882F10
S11310D090E0820F931FAC0165E380E390E80E94E7
S11310E02701D3C1809134018331E1F48091360129
S11310F08F3098F480913501882F90E0382F222783
S113110080913601882F90E0820F931FAC0162E436
S113111080E390E80E942701B8C163E086E80E945A
S11311204305B3C1809134018431E1F480913601E7
S1131130823098F480913501882F90E0382F22274F
S113114080913601882F90E0820F931FAC016CE0F0
S113115080E390E80E94270198C163E086E80E943A
S1131160430593C1809134018531E1F480913601C6
S1131170853698F480913501882F90E0382F222706
S113118080913601882F90E0820F931FAC0163E0B9
S113119080E390E80E94270178C163E086E80E941A
S11311A0430573C1809134018631E1F480913601A5
S11311B0823098F480913501882F90E0382F2227CF
S11311C080913601882F90E0820F931FAC0167E075
S11311D080E390E80E94270158C163E086E80E94FA
S11311E0430553C1809134018731E1F48091360184
S11311F0823098F480913501882F90E0382F22278F
S113120080913601882F90E0820F931FAC016DE02E
S113121080E390E80E94270138C163E086E80E94D9
S1131220430533C1809134018831E1F48091360162
S1131230823098F480913501882F90E0382F22274E
S113124080913601882F90E0820F931FAC0164E4F3
S113125080E390E80E94270118C163E086E80E94B9
S1131260430513C1809134018931E1F48091360141
S1131270853698F480913501882F90E0382F222705
S113128080913601882F90E0820F931FAC016FE3A9
S113129080E390E80E942701F8C063E086E80E949A
S11312A04305F3C0809134018A31E1F48091360121
S11312B0853698F480913501882F90E0382F2227C5
S11312C080913601882F90E0820F931FAC0167E470
S11312D080E390E80E942701D8C063E086E80E947A
S11312E04305D3C0809134018B31E1F48091360100
S11312F0823098F480913501882F90E0382F22278E
S113130080913601882F90E0820F931FAC0162E137
S113131080E390E80E942701B8C063E086E80E9459
S11313204305B3C0809134018C31E1F480913601DE
S1131330853698F480913501882F90E0382F222744
S113134080913601882F90E0820F931FAC0166E3F1
S113135080E390E80E94270198C063E086E80E9439
S1131360430593C0809134018D31E1F480913601BD
S1131370853698F480913501882F90E0382F222704
S113138080913601882F90E0820F931FAC0168E3AF
S113139080E390E80E94270178C063E086E80E9419
S11313A0430573C0809134018E31E1F4809136019C
S11313B0853698F480913501882F90E0382F2227C4
S11313C080913601882F90E0820F931FAC016BE36C
S11313D080E390E80E94270158C063E086E80E94F9
S11313E0430553C0809134018F31E1F4809136017B
S11313F0853698F480913501882F90E0382F222784
S113140080913601882F90E0820F931FAC016EE328
S113141080E390E80E94270138C063E086E80E94D8
S1131420430533C0809134018032E1F48091360168
S1131430853698F480913501882F90E0382F222743
S113144080913601882F90E0820F931FAC0160E4F5
S113145080E390E80E94270118C063E086E80E94B8
S1131460430513C062E086E80E9443050EC08091E4
S11314703201853151F080913201863131F0809111
S11314803201805861E00E94430585EC94E00E949B
S11314903F1421E0892B09F420E0222309F43EC300
S11314A08091320491E0980F90933204082F10E059
S11314B085EC94E00E94B5139C01C801880F991F24
S11314C08E5C9D4FFC013183208380913202909188
S11314D03302892B29F480913204815080933204A1
S11314E080913A0290913B028397B1F480913C023F
S11314F090913D02019781F48091400290914102C4
S11315008F3F910549F460E070E086E00E94940307
S113151010923B0210923A0281E590E00E94A402EC
S1131520882309F4FBC220917202309173028091E6
S1131530740290917502982F8827820F931F9093BD
S1131540800480937F042091760230917702809109
S1131550780290917902982F8827820F931F909395
S113156082048093810420917A0230917B028091DD
S11315707C0290917D02982F8827820F931F90936D
S113158086048093850480917F0490918004CC012B
S1131590A0E0B0E0BC01CD010E94FA0EDC01CB0159
S11315A08F839887A987BA87809181049091820458
S11315B0CC01A0E0B0E0BC01CD010E94FA0EDC0138
S11315C0CB018B879C87AD87BE87809185049091E2
S11315D08604CC01A0E0B0E0BC01CD010E94FA0E6B
S11315E0DC01CB018F87988BA98BBA8B2F8138852F
S11315F049855A856F85788989899A890E94E50D7C
S1131600DC01CB016C017D012F81388549855A8528
S11316106B857C858D859E850E94E60DDC01CB0162
S11316202F81388549855A85BC01CD010E94E50D7D
S1131630DC01CB019C01AD01C701B6010E94520E31
S1131640DC01CB0120E030E048EC52E4BC01CD01E8
S11316500E948D0FDC01CB018B8B9C8BAD8BBE8BE1
S113166020E030E0A9016B897C898D899E890E94E4
S1131670880F88239CF020E030E040E05FE36B8932
S11316807C898D899E890E94E60DDC01CB01BC0119
S1131690CD010E94C40EDC01CB0112C020E030E079
S11316A040E05FE36B897C898D899E890E94E50D0A
S11316B0DC01CB01BC01CD010E94C40EDC01CB01D5
S11316C090938404809383048091A6029091A7024E
S11316D090938804809387048091560290915702D6
S11316E090938A04809389048091420290914302EA
S11316F090938C0480938B0480914C0290914D02C2
S113170090938E0480938D04809158029091590295
S11317109093900480938F048091A4029091A502E9
S113172090939204809391048091980290919902ED
S113173090939404809393048091AA029091AB02B5
S1131740909396048093950480916402909165022D
S113175090939804809397048091840290918502D9
S113176090939A04809399048091880290918902BD
S113177090939C0480939B0480918E0290918F029D
S113178090939E0480939D04809196029091970279
S11317909093A00480939F0480919A0290919B025D
S11317A09093A2048093A1042091340230913502D5
S11317B08091360290913702982F8827820F931FC9
S11317C09093A4048093A3048091540290915502B1
S11317D09093A6048093A50480913C0290913D02CD
S11317E09093A8048093A70480913E0290913F02B5
S11317F09093AA048093A90480914802909149028D
S11318009093AC048093AB04809152029091530264
S11318109093AE048093AD0480914A0290914B0260
S11318209093B0048093AF04809140029091410260
S11318309093B2048093B104209144023091450204
S11318408091460290914702982F8827820F931F18
S11318509093B6048093B504209192023091930240
S11318608091940290919502982F8827820F931F5C
S11318709093B8048093B70420919C0230919D0208
S113188080919E0290919F02982F8827820F931F28
S11318909093BA048093B9048091B0029091B102FC
S11318A09093BC048093BB0480917E0290917F024C
S11318B09093BE048093BD042091800230918102F4
S11318C08091820290918302982F8827820F931F20
S11318D09093C0048093BF048091900290919102F0
S11318E09093C2048093C1048091A0029091A102BC
S11318F09093C4048093C3048091830490918404DE
S113190090933404809333048091B3049091B4048D
S113191090933604809335048091870490918804D1
S1131920909338048093370480917F0490918004CD
S113193090933A04809339048091810490918204B5
S113194090933C0480933B048091A5049091A60459
S113195090933E0480933D048091A7049091A80441
S11319609093400480933F048091A9049091AA0429
S113197090934204809341048091AB049091AC0411
S113198090934404809343048091AD049091AE04F9
S113199090934604809345048091AF049091B004E1
S11319A090934804809347048091B1049091B204C9
S11319B090934A04809349048091B5049091B604AD
S11319C090934C0480934B048091B7049091B80495
S11319D090934E0480934D048091B9049091BA047D
S11319E09093500480934F048091BB049091BC0465
S11319F090935204809351048091BD049091BE044D
S1131A0090935404809353048091BF049091C00434
S1131A1090935604809355048091C1049091C2041C
S1131A2090935804809357048091C3049091C40404
S1131A3090935A04809359048091890490918A0464
S1131A4090935C0480935B0480918B0490918C044C
S1131A5090935E0480935D0480918D0490918E0434
S1131A609093600480935F0480918F04909190041C
S1131A709093620480936104809191049091920404
S1131A8090936404809363048091930490919404EC
S1131A9090936604809365048091950490919604D4
S1131AA090936804809367048091970490919804BC
S1131AB090936A04809369048091990490919A04A4
S1131AC090936C0480936B0480919B0490919C048C
S1131AD090936E0480936D0480919D0490919E0474
S1131AE09093700480936F0480919F049091A0045C
S1131AF090937204809371048091A1049091A20444
S1131B0090937404809373048091A3049091A4042B
S1131B1090937604809375040E94150100006696E4
S1131B200FB6F894DEBF0FBECDBFDF91CF911F91EA
S1131B300F91FF90EF90DF90CF900895CF93DF93B4
S1131B4000D000D0CDB7DEB79A8389837C836B83C2
S1131B5089819A81019759F48B819C81019639F48A
S1131B6020E047E067E085EC94E00E9469158981F4
S1131B709A81892B41F48B819C81019621F485EC17
S1131B8094E00E94101500000F900F900F900F909A
S1131B90DF91CF910895CF93DF93CDB7DEB76FEF89
S1131BA07FEF81E090E00E949E0DDF91CF91089538
S1131BB0CF93DF93CDB7DEB76FEF7FEF80E090E098
S1131BC00E949E0DDF91CF9108955058BB27AA27FC
S1131BD00E94FD0D0C944E0F0E94400F38F00E949D
S1131BE0470F20F039F49F3F19F426F40C943D0F6D
S1131BF00EF4E095E7FB0C94370FE92F0E945F0F7A
S1131C0058F3BA17620773078407950720F079F42D
S1131C10A6F50C94810F0EF4E0950B2EBA2FA02D8F
S1131C200B01B90190010C01CA01A0011124FF2785
S1131C30591B99F0593F50F4503E68F11A16F04080
S1131C40A22F232F342F4427585FF3CF469537957F
S1131C502795A795F0405395C9F77EF41F16BA0B44
S1131C60620B730B840BBAF09150A1F0FF0FBB1FF2
S1131C70661F771F881FC2F70EC0BA0F621F731F3B
S1131C80841F48F4879577956795B795F7959E3F98
S1131C9008F0B0CF9395880F08F09927EE0F979529
S1131CA0879508950E94660E0C944E0F0E94470F6C
S1131CB058F00E94400F40F029F45F3F29F00C9443
S1131CC0370F51110C94820F0C943D0F0E945F0F3B
S1131CD068F39923B1F3552391F3951B550BBB2757
S1131CE0AA2762177307840738F09F5F5F4F220F9C
S1131CF0331F441FAA1FA9F335D00E2E3AF0E0E893
S1131D0032D091505040E695001CCAF72BD0FE2FDC
S1131D1029D0660F771F881FBB1F26173707480770
S1131D20AB07B0E809F0BB0B802DBF01FF27935828
S1131D305F4F3AF09E3F510578F00C94370F0C94A6
S1131D40820F5F3FE4F3983ED4F3869577956795C9
S1131D50B795F7959F5FC9F7880F911D969587955D
S1131D6097F90895E1E0660F771F881FBB1F62177C
S1131D7073078407BA0720F0621B730B840BBA0B3A
S1131D80EE1F88F7E09508950E94CB0E6894B11178
S1131D900C94820F08950E94670F88F09F5798F063
S1131DA0B92F9927B751B0F0E1F0660F771F881F5C
S1131DB0991F1AF0BA95C9F714C0B13091F00E9476
S1131DC0810FB1E008950C94810F672F782F882735
S1131DD0B85F39F0B93FCCF3869577956795B3959D
S1131DE0D9F73EF490958095709561957F4F8F4F0C
S1131DF09F4F0895E89409C097FB3EF49095809511
S1131E00709561957F4F8F4F9F4F9923A9F0F92FBC
S1131E1096E9BB279395F695879577956795B7953A
S1131E20F111F8CFFAF4BB0F11F460FF1BC06F5F20
S1131E307F4F8F4F9F4F16C0882311F096E911C032
S1131E40772321F09EE8872F762F05C0662371F053
S1131E5096E8862F70E060E02AF09A95660F771F67
S1131E60881FDAF7880F9695879597F9089597F95B
S1131E709F6780E870E060E008959FEF80EC08952C
S1131E8000240A9416161706180609060895002455
S1131E900A9412161306140605060895092E0394CF
S1131EA0000C11F4882352F0BB0F40F4BF2B11F443
S1131EB060FF04C06F5F7F4F8F4F9F4F089557FDA2
S1131EC09058440F551F59F05F3F71F04795880FA4
S1131ED097FB991F61F09F3F79F08795089512163B
S1131EE013061406551FF2CF4695F1DF08C01616E7
S1131EF017061806991FF1CF869571056105089498
S1131F000895E894BB2766277727CB0197F90895AE
S1131F100E94FA0F08F48FEF08950E94A00F0C940A
S1131F204E0F0E94400F38F00E94470F20F0952377
S1131F3011F00C94370F0C943D0F11240C94820F64
S1131F400E945F0F70F3959FC1F3950F50E0551FEA
S1131F50629FF001729FBB27F00DB11D639FAA27FA
S1131F60F00DB11DAA1F649F6627B00DA11D661F49
S1131F70829F2227B00DA11D621F739FB00DA11D6A
S1131F80621F839FA00D611D221F749F3327A00D24
S1131F90611D231F849F600D211D822F762F6A2FC0
S1131FA011249F5750409AF0F1F088234AF0EE0F25
S1131FB0FF1FBB1F661F771F881F91505040A9F752
S1131FC09E3F510580F00C94370F0C94820F5F3FB5
S1131FD0E4F3983ED4F3869577956795B795F7958E
S1131FE0E7959F5FC1F7FE2B880F911D9695879506
S1131FF097F90895990F0008550FAA0BE0E8FEEF32
S113200016161706E807F907C0F012161306E407B8
S1132010F50798F0621B730B840B950B39F40A26B1
S113202061F0232B242B252B21F408950A2609F48F
S1132030A140A6958FEF811D811D0895FC01918D0E
S1132040228D892F90E0805C9F4F821B91098F73B2
S113205099270895FC01918D828D981731F0828D16
S1132060E80FF11D858D90E008958FEF9FEF08959F
S1132070FC01918D828D981761F0828DDF01A80F8C
S1132080B11D5D968C91928D9F5F9F73928F90E0AE
S113209008958FEF9FEF0895FC01538D448D252FF4
S11320A030E0842F90E0821B930B541710F0CF96EE
S11320B00895019708958AEB91E1892B49F080E016
S11320C090E0892B29F00E94BA1181110C94000030
S11320D00895FC01848DDF01A80FB11DA35ABF4FE1
S11320E02C91848D90E001968F739927848FA68913
S11320F0B7892C93A089B1898C91837080648C9367
S1132100938D848D981306C00288F389E02D808115
S11321108F7D80830895EF92FF920F931F93CF9347
S1132120DF93EC0181E0888F9B8D8C8D981305C023
S1132130E889F989808185FD26C0F62E0B8D10E093
S11321400F5F1F4F0F731127E02E8C8DE8120CC008
S11321500FB607FCFACFE889F989808185FFF5CFAE
S1132160CE010E946910F1CF8B8DFE01E80FF11DA5
S1132170E35AFF4FF0829FB7F8940B8FEA89FB89EB
S1132180808180620AC09FB7F894EE89FF896083DA
S1132190E889F98980818370806480839FBF81E0AE
S11321A090E0DF91CF911F910F91FF90EF900895F0
S11321B0CF93DF93EC01888D8823C9F0EA89FB89EA
S11321C0808185FD05C0A889B9898C9186FD0FC0E1
S11321D00FB607FCF5CF808185FFF2CFA889B989B6
S11321E08C9185FFEDCFCE010E946910E7CFDF917E
S11321F0CF910895CF92DF92EF92FF921F93CF93E6
S1132200DF93EC016A017B01122FE889F98982E0EE
S113221080834115514E61057105B1F060E079E0AC
S11322208DE390E0A70196010E943716DA01C901F7
S11322300197A109B109B695A795979587959C0132
S1132240211580E13807A8F0E889F989108260E84F
S113225074E88EE190E0A70196010E943716DA0136
S1132260C9010197A109B109B695A79597958795D5
S11322709C01EC85FD853083EE85FF852083188ED7
S1132280EC89FD891083EA89FB89808180618083E0
S1132290EA89FB89808188608083EA89FB8980815F
S11322A080688083EA89FB8980818F7D8083DF91C8
S11322B0CF911F91FF90EF90DF90CF90089580E031
S11322C090E008951F920F920FB60F9211242F934E
S11322D08F939F93EF93FF93E091F404F091F504AF
S11322E08081E091FA04F091FB0482FD12C0908198
S11322F08091FD048F5F8F732091FE04821751F04B
S1132300E091FD04F0E0EC51FB4F958F8093FD04C8
S113231001C08081FF91EF919F918F912F910F9038
S11323200FBE0F901F9018951F920F920FB60F9229
S113233011242F933F934F935F936F937F938F93C6
S11323409F93AF93BF93EF93FF9384EE94E00E9427
S11323506910FF91EF91BF91AF919F918F917F9100
S11323606F915F914F913F912F910F900FBE0F90FE
S11323701F90189584EE94E00E941E1021E0892B92
S113238009F420E0822F0895E4EEF4E0138212822F
S113239088EE93E0A0E0B0E084839583A683B783BE
S11323A08EE091E09183808385EC90E0958784872B
S11323B084EC90E09787868780EC90E0918B808B0B
S11323C081EC90E0938B828B82EC90E0958B848BF4
S11323D086EC90E0978B868B118E128E138E148E62
S11323E0089508950E94E6120E94F1110E94CD05FD
S11323F0CBE5D0E10E940B062097E1F30E945B102D
S1132400F9CF0C9492160C942A17CF92DF92EF9284
S1132410FF920F931F93CF93DF936C017A018B018B
S1132420C0E0D0E0CE15DF0581F0D8016D918D01BB
S1132430D601ED91FC910190F081E02DC601099542
S1132440892B11F02196EECF7E01C701DF91CF9148
S11324501F910F91FF90EF90DF90CF9008951F92FE
S11324600F920FB60F9211242F933F938F939F9344
S1132470AF93BF938091820590918305A0918405C9
S1132480B09185053091810523E0230F2D3720F489
S11324900196A11DB11D05C026E8230F0296A11DBA
S11324A0B11D209381058093820590938305A093A9
S11324B08405B09385058091860590918705A09148
S11324C08805B09189050196A11DB11D80938605EB
S11324D090938705A0938805B0938905BF91AF9128
S11324E09F918F913F912F910F900FBE0F901F904E
S11324F018952FB7F89460918205709183058091A7
S11325008405909185052FBF08953FB7F894809175
S1132510860590918705A0918805B091890526B517
S1132520A89B05C02F3F19F00196A11DB11D3FBF07
S1132530BA2FA92F982F8827820F911DA11DB11D95
S1132540BC01CD0142E0660F771F881F991F4A9591
S1132550D1F708958F929F92AF92BF92CF92DF925C
S1132560EF92FF926B017C010E9485124B015C018A
S1132570C114D104E104F10401F10E9422160E9465
S11325808512DC01CB0188199909AA09BB09883E87
S11325909340A105B10560F321E0C21AD108E10816
S11325A0F10888EE880E83E0981EA11CB11CC114AA
S11325B0D104E104F10419F7DBCFFF90EF90DF9031
S11325C0CF90BF90AF909F908F900895789484B5EA
S11325D0826084BD84B5816084BD85B5826085BD1B
S11325E085B5816085BDEEE6F0E080818160808301
S11325F0E1E8F0E0108280818260808380818160E4
S11326008083E0E8F0E0808181608083E1EBF0E0AA
S1132610808184608083E0EBF0E08081816080834E
S1132620EAE7F0E080818460808380818260808337
S11326308081816080838081806880831092C10062
S11326400895833081F028F4813099F08230A1F02C
S113265008958730A9F08830B9F08430D1F480919E
S113266080008F7D03C0809180008F7780938000ED
S1132670089584B58F7702C084B58F7D84BD089595
S11326808091B0008F7703C08091B0008F7D8093DC
S1132690B0000895CF93DF9390E0FC01E853FF4F1F
S11326A02491FC01E452FF4F8491882361F190E06E
S11326B0880F991FFC01EC5FFE4FC591D491FC017A
S11326C0E650FF4FA591B491611109C09FB7F894EA
S11326D08881209582238883EC912E230BC062305D
S11326E061F49FB7F8948881322F309583238883CF
S11326F0EC912E2B2C939FBF06C08FB7F894E881E2
S11327002E2B28838FBFDF91CF9108951F93CF93F2
S1132710DF93282F30E0F901EC54FF4F8491F90145
S1132720E853FF4FD491F901E452FF4FC491CC23F5
S1132730C1F0162F81110E942113EC2FF0E0EE0F4F
S1132740FF1FE650FF4FA591B4919FB7F894111164
S113275004C08C91D095D82302C0EC91DE2BDC937D
S11327609FBFDF91CF911F9108952091CC053091A7
S1132770CD0528173907B9F490918A0580918B0506
S1132780981789F0E0918A05F0E0E457FA4F8081C8
S113279020918A0530E02F5F3F4F2F73332720931A
S11327A08A0590E008958FEF9FEF08951F93CF93CC
S11327B0DF93DC015C968D919C915D97009739F4D1
S11327C021E030E013963C932E9312973BC0519630
S11327D0ED91FC91529750962C915097322F309551
S11327E01FB75E964C915E97742F727041FD609591
S11327F0F8944081772311F0422B01C04323408396
S1132800EC012197F1F748E0508160FF02C0522BA0
S113281001C053235083EC012197F1F76695415091
S113282099F78081772319F08323808302C0282BB2
S113283020831FBF5C968D919C915D970197F1F762
S113284081E090E0DF91CF911F9108950895209148
S1132850CC053091CD052817390771F490918A057C
S113286080918B05981741F0E0918A05F0E0E457D8
S1132870FA4F808190E008958FEF9FEF08952091A3
S1132880CC053091CD052817390771F480918B055B
S113289020918A0590E0805C9F4F821B910960E43F
S11328A070E00E942316089580E090E00895E0917E
S11328B0CC05F091CD05E817F90769F4A389B4892B
S11328C09C918589809589238C931092CD051092D3
S11328D0CC0581E0089580E00895CF93DF93EC0167
S11328E08A8D9B8D892BF1F08091CC059091CD053B
S11328F0C817D907B9F0009711F00E9457148E8DAC
S11329008E7F8E8F10928B0510928A05D093CD0501
S1132910C093CC05EB89FC8990818D89892B8083B8
S113292081E001C080E0DF91CF9108951F920F9262
S11329300FB60F9211242F933F934F935F936F938E
S11329407F938F939F93AF93BF93EF93FF93E09104
S1132950CC05F091CD05309709F451C0968DA6852C
S1132960B785858591FF04C09C91892329F447C0CC
S11329709C91892309F043C0A389B4899C918589DA
S1132980809589238C93868997890197F1F7608DC7
S1132990718DA685B785558538E020E0CB01019778
S11329A0F1F7822F90E095958795282F4C91452338
S11329B009F02068315091F7868D81FD2095809132
S11329C08B0590E001968F73992730918A0538170B
S11329D049F0A0918B05B0E0A457BA4F2C93809393
S11329E08B0503C0868D8160868F828D938D0197C0
S11329F0F1F7A389B4899C918589892B8C93FF91E4
S1132A00EF91BF91AF919F918F917F916F915F9162
S1132A104F913F912F910F900FBE0F901F901895DB
S1132A2020E231E0FC01318320830C9457141F937E
S1132A30CF93DF93EC01162F6E8D6695617081E064
S1132A406827812F0E94861361E0812F0E944A1318
S1132A50812F90E0FC01E853FF4FE491E88BFC01E7
S1132A60E452FF4FE491F0E0EE0FFF1FE650FF4FFA
S1132A70859194919A8B898BDF91CF911F910895C1
S1132A801F93CF93DF93EC01162F60E0812F0E94F8
S1132A904A138E8D81FD04C061E0812F0E9486134C
S1132AA01C87812F90E0FC01E853FF4FE491ED87F0
S1132AB0FC01E452FF4FE491F0E0EE0FFF1FE05100
S1132AC0FF4F859194919F878E87DF91CF911F91BE
S1132AD008951F93CF93DF93EC01162F1B821A8264
S1132AE088EE93E0A0E0B0E08C839D83AE83BF8347
S1132AF080E291E0998388831F8A1E8A198E188E3A
S1132B001B8E1A8E1D8E1C8E8E8D8E7F20FB81F95E
S1132B108E8F642FCE010E941715612FCE01DF9195
S1132B20CF911F910C944015CF93DF93EC019A0140
S1132B30AB011B8E1A8E198E188E1F8A1E8A60E0B6
S1132B4079E08DE390E00E945916F90124303105B3
S1132B5018F0C901039702C081E090E09D8F8C8F2B
S1132B606C85663108F069C0C901969587958431F2
S1132B70910510F0439702C081E090E09F8B8E8B0B
S1132B80369718F0C901059702C081E090E0998F4B
S1132B90888FC901880F991F280F391F36952795EB
S1132BA0369527952D30310518F02C50310902C087
S1132BB021E030E03B8F2A8F90916800683050F01C
S1132BC021E06E3008F420E081E001C0880F2A95EE
S1132BD0EAF701C084E0892B809368009C859830D3
S1132BE038F09E3040F0963148F020E030E008C0E4
S1132BF02DE630E005C02BE630E002C02CE630E0E4
S1132C003C8B2B8B983030F481E001C0880F9A956F
S1132C10EAF70EC0292F30E09E3018F4285031090D
S1132C2002C02E50310981E001C0880F2A95EAF7CD
S1132C308D8B8C8D9D8D0197F1F7CE01DF91CF9116
S1132C400C946D14089597FB072E16F4009407D086
S1132C5077FD09D00E94781607FC05D03EF49095C4
S1132C6081959F4F0895709561957F4F0895A1E2D6
S1132C701A2EAA1BBB1BFD010DC0AA1FBB1FEE1FF2
S1132C80FF1FA217B307E407F50720F0A21BB30B3D
S1132C90E40BF50B661F771F881F991F1A9469F7B9
S1132CA060957095809590959B01AC01BD01CF0115
S1132CB00895052E97FB1EF400940E94701657FD8C
S1132CC007D00E94371607FC03D04EF40C947016FC
S1132CD050954095309521953F4F4F4F5F4F089544
S1132CE090958095709561957F4F8F4F9F4F089574
S1132CF0AA1BBB1B51E107C0AA1FBB1FA617B7071E
S1132D0010F0A61BB70B881F991F5A95A9F7809539
S1132D109095BC01CD010895EE0FFF1F0590F4912D
S1132D20E02D09940F931F93CF93DF938230910585
S1132D3010F482E090E0E091D005F091D10520E01C
S1132D4030E0A0E0B0E0309719F140815181028178
S1132D50138148175907C8F08417950769F4109729
S1132D6031F012960C93129713961C9327C000937C
S1132D70D0051093D10522C02115310519F0421751
S1132D80530718F49A01BD01EF01DF01F801DBCF0D
S1132D9021153105F9F0281B390B2430310580F455
S1132DA08A819B816115710521F0FB0193838283E4
S1132DB004C09093D1058093D005FE01329644C09F
S1132DC0FE01E20FF31F819391932250310939835D
S1132DD028833AC02091CE053091CF05232B41F4AE
S1132DE020910201309103013093CF052093CE0549
S1132DF020910001309101012115310541F42DB7D5
S1132E003EB74091040150910501241B350BE0911C
S1132E10CE05F091CF05E217F307A0F42E1B3F0B6C
S1132E202817390778F0AC014E5F5F4F2417350738
S1132E3048F04E0F5F1F5093CF054093CE0581930A
S1132E40919302C0E0E0F0E0CF01DF91CF911F91B8
S1132E500F910895CF93DF93009709F481C0FC018B
S1132E60329713821282A091D005B091D1051097A8
S1132E7081F420813181820F931F2091CE053091FE
S1132E80CF052817390751F5F093CF05E093CE0508
S1132E9067C0ED0120E030E0CE17DF0740F44A813F
S1132EA05B819E0141155105F1F0EA01F5CFD38311
S1132EB0C28340815181840F951FC817D90759F4E3
S1132EC088819981840F951F0296918380838A81DA
S1132ED09B81938382832115310529F4F093D105D5
S1132EE0E093D0053DC0E901FB83EA834991599100
S1132EF0C40FD51FEC17FD0761F480819181840F05
S1132F00951F0296E90199838883828193819B832B
S1132F108A83E0E0F0E012968D919C9113970097DC
S1132F2019F0FD01DC01F7CF8D919C9111979D0162
S1132F302E5F3F4F820F931F2091CE053091CF0516
S1132F402817390769F4309729F41092D1051092A3
S1132F50D00502C013821282B093CF05A093CE0590
S1132F60DF91CF910895DC0101C06D934150504031
S1132F70E0F7089510E0C9E8D0E004C0FE010E9423
S1112F808C162196CA38D107C9F7F894FFCFF2
S1132F8E0000D205200001000200000000008B109A
S1132F9E05124C10D8101E1038102A100000000014
S1112FAED61305125F1126143F14B513271411
S9030000FC
